:03000000020003F8
:0C000300787FE4F6D8FD75811102004AF8
:0C0143000A083F065B4F666D7D077F6F6A
:10008F00EF14B4080050549000A475F003A4C58376
:10009F0025F0C583730200BC0200C00200C4020039
:1000AF00C80200CC0200D40200DC0200E4D2A4801B
:1000BF000ED2A48012D2A48016D2A4801AC2A4D2C7
:1000CF00A3D2A28016C2A4D2A3C2A2800EC2A4C27F
:1000DF00A3D2A28006C2A4C2A3C2A274082DF8E6BE
:0300EF00F5802277
:090125007D0412008F7F017E00B1
:10012E00EF1FAC0670011E4C600A7D027CEFDCFEF8
:04013E00DDFC80EC78
:01014200229A
:1000F2007D017F0112008F7E0012012E7D017F02A1
:1001020012008F1F7E0012012E7F031201257D0532
:100112007F041201277D017F051201277F0612014C
:030122002580CD68
:10000F000200F2E493A3F8E493A34003F68001F215
:10001F0008DFF48029E493A3F85407240CC8C333F2
:10002F00C4540F4420C8834004F456800146F6DFC1
:10003F00E4800B0102040810204080900143E47E0D
:10004F00019360BCA3FF543F30E509541FFEE493B6
:10005F00A360010ECF54C025E060A840B8E493A37D
:10006F00FAE493A3F8E493A3C8C582C8CAC583CAA8
:10007F00F0A3C8C582C8CAC583CADFE9DEE780BE60
:01014F0000AF
:00000001FF
