:03021A00010800D8
:0E02050000007F017ED87D23DDFEDEFCDFFAE7
:0102130022C8
:05021400007FF7DFFE92
:0102190022C2
:0401E300AD07AC06B2
:1001E700E4FBFAED25E0FFEC33FEC3EB9FEA9E50FC
:0D01F7000CB2A51202140BBB00010A80E639
:0102040022D7
:10000300E4FC7590FFC29320970B1202053097FD15
:100013001202057C0120960B1202053096FD120296
:10002300057C0520950B1202053095FD1202057C17
:100033000920940B1202053094FD1202057C0D7504
:1000430090FFC29220970B1202053097FD12020512
:100053007C0220960B1202053096FD1202057C06E7
:1000630020950B1202053095FD1202057C0A20949F
:100073000B1202053094FD1202057C0E7590FFC22F
:100083009120970B1202053097FD1202057C032085
:10009300960B1202053096FD1202057C0720950B84
:1000A3001202053095FD1202057C0B20940B1202FF
:1000B300053094FD1202057C0F7590FFC2902097C6
:1000C3000B1202053097FD1202057C0420960B12D9
:1000D30002053096FD1202057C0820950B120205DD
:1000E3003095FD1202057C0C20940B12020530940E
:0800F300FD1202057C10AF04B0
:0100FB0022E2
:100188001200038F08E508B401077F057E011201FC
:10019800E3E508B402077F257E011201E3E508B410
:1001A80003077F497E011201E3E508B404077F5D78
:1001B8007E011201E3E508B405077F887E0112017C
:1001C800E3E508B406077FB87E011201E3E508B449
:0B01D80007AE7FED7E011201E380A561
:030000000200FCFF
:0C00FC00787FE4F6D8FD7581080201430E
:10010800020188E493A3F8E493A34003F68001F284
:1001180008DFF48029E493A3F85407240CC8C333F8
:10012800C4540F4420C8834004F456800146F6DFC7
:10013800E4800B010204081020408090021AE47E3B
:10014800019360BCA3FF543F30E509541FFEE493BC
:10015800A360010ECF54C025E060A840B8E493A383
:10016800FAE493A3F8E493A3C8C582C8CAC583CAAE
:10017800F0A3C8C582C8CAC583CADFE9DEE780BE66
:01021D0000E0
:00000001FF
