:100C9C00021400640208006402100010020E00002E
:080CAC0002120000020A000020
:100C6400D3EF9400EE940040147D727C00ED1D706F
:0D0C7400011CED4C70F7EF1F70E61E80E3D1
:010C81002250
:100C8200758912758DFF758BD2758CA4758AA4D265
:0A0C9200ABD2A9D2AFD28ED28C22D1
:1008000030A01B20A11820A21520A31220A40F2085
:10081000A50C20A60920A7062090037F012230A066
:100820001B30A11820A21520A31220A40F20A50C74
:1008300020A60920A7062090037F022220A01B30BB
:10084000A11820A21520A31220A40F20A50C20A6D9
:100850000920A7062090037F022220A01B30A118A8
:1008600030A21520A31220A40F20A50C20A6092039
:10087000A7062090037F032220A01B20A11830A2EE
:100880001520A31220A40F20A50C20A60920A7063E
:100890002090037F032220A01B20A11830A2153036
:1008A000A31220A40F20A50C20A60920A7062090A3
:1008B000037F042220A01B20A11820A21530A31220
:1008C00020A40F20A50C20A60920A7062090037FB6
:1008D000042220A01B20A11820A21530A31230A4AE
:1008E0000F20A50C20A60920A7062090037F052233
:1008F00020A01B20A11820A21520A31230A40F2095
:10090000A50C20A60920A7062090037F052220A081
:100910001B20A11820A21520A31230A40F30A50C73
:1009200020A60920A7062090037F052220A01B20D7
:10093000A11820A21520A31220A40F30A50C20A6D8
:100940000920A7062090037F062220A01B20A118C3
:1009500020A21520A31220A40F30A50C30A6092038
:10096000A7062090037F062220A01B20A11820A20A
:100970001520A31220A40F20A50C30A60920A7063D
:100980002090037F072220A01B20A11820A2152061
:10099000A31220A40F20A50C30A60930A706209092
:1009A000037F072220A01B20A11820A21520A3123C
:1009B00020A40F20A50C20A60930A7062090037FB5
:1009C000082220A01B20A11820A21520A31220A4D9
:1009D0000F20A50C20A60930A7063090037F08221F
:1009E00020A01B20A11820A21520A31220A40F20B4
:1009F000A50C20A60920A7063090037F09227F00BE
:010A000022D3
:100A010085100C85110D120C82120800AE07EE70D4
:100A110002AE168E16EEB40A004003020B0D900AC8
:100A210026F8282873020A44020A53020A6E020AAF
:100A310082020A96020AAA020AB8020ACB020ADE56
:100A4100020AF685100C85110D7514007515320218
:100A51000B0DE51124FBF50DE51034FFF50C7514B4
:100A610000751532750A00750B01020B0DE5112495
:100A7100FBF50DE51034FFF50C75140075153C8080
:100A81006DE51124FDF50DE51034FFF50C7514002D
:100A91007515288059E51124FEF50DE51034FFF593
:100AA1000C751400751532804585100C85110D7576
:100AB10014007515558037E5112401F50DE4351045
:100AC100F50C7514007515328024E5112402F50D1D
:100AD100E43510F50C7514007515238011E511240A
:100AE10003F50DE43510F50C75140075152DE4F5BD
:100AF1000AF50B8017E5112404F50DE43510F50C0A
:100B0100751400751537750A00750B02E50B640144
:100B1100450A701BEE7018E51124F9F50DE5103446
:100B2100FFF50C751400751537120800EF60FAE532
:100B31000B6402450A6003020A0AEE6003020A0A14
:100B4100E5112404F50DE43510F50C751400751547
:0C0B510028120800EF6003020A0A80F579
:03000B00020BE9FC
:100BE900C0E0C0D0050FE50F7002050E6464450E24
:100BF9007004F50EF50FD3E50F9515E50E95145014
:100C090006C281D2828004C281C282D3E50F9509CE
:100C1900E50E95085006D283C2848004C283C2843B
:050C2900D0D0D0E03244
:03001B00020C2EA6
:100C2E00C0E0C0D0758DFF758BD10513E513700232
:100C3E000512B42C0BE512B40106751200751300E3
:100C4E00C3E513950DE512950C5004D2808002C2B7
:060C5E0080D0D0D0E0328E
:03000000020B5D93
:0C0B5D00787FE4F6D8FD758116020BA429
:100B6900020A01E493A3F8E493A34003F68001F297
:100B790008DFF48029E493A3F85407240CC8C3338D
:100B8900C4540F4420C8834004F456800146F6DF5C
:100B9900E4800B0102040810204080900C9CE47E44
:100BA900019360BCA3FF543F30E509541FFEE49351
:100BB900A360010ECF54C025E060A840B8E493A318
:100BC900FAE493A3F8E493A3C8C582C8CAC583CA43
:100BD900F0A3C8C582C8CAC583CADFE9DEE780BEFB
:010CB400003F
:00000001FF
