:0300000002000EED
:0C000E00787FE4F6D8FD75810B020055E8
:0C013F00010A00010B0101080001090089
:10012C005389F0438901758C3C758AB0D2A9D2AF42
:03013C00D28C2240
:10011700EF1FAC0670011E4C600A7D027CEFDCFE0F
:04012700DDFC80EC8F
:01012B0022B1
:03000B0002009A56
:0D009A00C0E0C0F0C0D075D000C000C007AD
:1000A700758C3C758AB00509E509C39408401F752E
:1000B7000900AF08A8077401088002C333D8FCF40D
:1000C700F5A00508E508C39408400375080005096D
:1000D700E50975F00A84E5F0701EE50B600E050A68
:1000E700E50AC394644011750B00800C150AE50AF4
:1000F700D394005003750B01E509C3950A5004C258
:05010700908002D2907F
:0B010C00D007D000D0D0D0F0D0E032FF
:0500030012012C80FE3B
:10001A00020003E493A3F8E493A34003F68001F2F9
:10002A0008DFF48029E493A3F85407240CC8C333E7
:10003A00C4540F4420C8834004F456800146F6DFB6
:10004A00E4800B010204081020408090013FE47E06
:10005A00019360BCA3FF543F30E509541FFEE493AB
:10006A00A360010ECF54C025E060A840B8E493A372
:10007A00FAE493A3F8E493A3C8C582C8CAC583CA9D
:10008A00F0A3C8C582C8CAC583CADFE9DEE780BE55
:01014B0000B3
:00000001FF
