:0F012100011000010F00070801020408104080C0
:10011100758901758C3C758AB0D2AFD2A9D28C2277
:0B013100C288C289D2A8D2AFD2B82287
:05014500007FF7DFFE62
:01014A002292
:0400EF00AD07AC06A7
:1000F300E4FBFAED25E0FFEC33FEC3EB9FEA9E50F1
:0D0103000CB2A51201450BBB00010A80E6FD
:0101100022CC
:1000C50075A0F0120131120111E510C3941440F925
:1000D500E4F5107408250FF8E6F4F5A0050FE50F13
:0A00E500C3940740E4E4F50F80DF48
:0300030002009A5E
:10009A00C0E0C0D075D000C002C003C004C005C013
:1000AA0006C0077F647E001200EFD007D006D00595
:0B00BA00D004D003D002D0D0D0E03240
:03000B0002013CB3
:09013C00758C3C758AB005103287
:0300000002000EED
:0C000E00787FE4F6D8FD758110020055E3
:10001A000200C5E493A3F8E493A34003F68001F237
:10002A0008DFF48029E493A3F85407240CC8C333E7
:10003A00C4540F4420C8834004F456800146F6DFB6
:10004A00E4800B0102040810204080900121E47E24
:10005A00019360BCA3FF543F30E509541FFEE493AB
:10006A00A360010ECF54C025E060A840B8E493A372
:10007A00FAE493A3F8E493A3C8C582C8CAC583CA9D
:10008A00F0A3C8C582C8CAC583CADFE9DEE780BE55
:0101300000CE
:00000001FF
